{
  "contractName": "Stores",
  "abi": [
    {
      "constant": false,
      "inputs": [
        {
          "name": "_recipient",
          "type": "address"
        }
      ],
      "name": "closeAndSend",
      "outputs": [],
      "payable": false,
      "stateMutability": "nonpayable",
      "type": "function"
    },
    {
      "constant": false,
      "inputs": [],
      "name": "unpause",
      "outputs": [],
      "payable": false,
      "stateMutability": "nonpayable",
      "type": "function"
    },
    {
      "constant": true,
      "inputs": [],
      "name": "marketplaceInstance",
      "outputs": [
        {
          "name": "",
          "type": "address"
        }
      ],
      "payable": false,
      "stateMutability": "view",
      "type": "function"
    },
    {
      "constant": false,
      "inputs": [],
      "name": "close",
      "outputs": [],
      "payable": false,
      "stateMutability": "nonpayable",
      "type": "function"
    },
    {
      "constant": true,
      "inputs": [],
      "name": "paused",
      "outputs": [
        {
          "name": "",
          "type": "bool"
        }
      ],
      "payable": false,
      "stateMutability": "view",
      "type": "function"
    },
    {
      "constant": true,
      "inputs": [],
      "name": "marketplaceId",
      "outputs": [
        {
          "name": "",
          "type": "address"
        }
      ],
      "payable": false,
      "stateMutability": "view",
      "type": "function"
    },
    {
      "constant": false,
      "inputs": [],
      "name": "pause",
      "outputs": [],
      "payable": false,
      "stateMutability": "nonpayable",
      "type": "function"
    },
    {
      "constant": true,
      "inputs": [],
      "name": "owner",
      "outputs": [
        {
          "name": "",
          "type": "address"
        }
      ],
      "payable": false,
      "stateMutability": "view",
      "type": "function"
    },
    {
      "constant": false,
      "inputs": [
        {
          "name": "newOwner",
          "type": "address"
        }
      ],
      "name": "transferOwnership",
      "outputs": [],
      "payable": false,
      "stateMutability": "nonpayable",
      "type": "function"
    },
    {
      "inputs": [
        {
          "name": "marketplaceContract",
          "type": "address"
        }
      ],
      "payable": false,
      "stateMutability": "nonpayable",
      "type": "constructor"
    },
    {
      "anonymous": false,
      "inputs": [
        {
          "indexed": false,
          "name": "id",
          "type": "bytes32"
        },
        {
          "indexed": false,
          "name": "name",
          "type": "string"
        },
        {
          "indexed": false,
          "name": "owner",
          "type": "address"
        },
        {
          "indexed": false,
          "name": "totalStores",
          "type": "uint256"
        }
      ],
      "name": "StorefrontCreated",
      "type": "event"
    },
    {
      "anonymous": false,
      "inputs": [
        {
          "indexed": false,
          "name": "id",
          "type": "bytes32"
        }
      ],
      "name": "StorefrontRemoved",
      "type": "event"
    },
    {
      "anonymous": false,
      "inputs": [
        {
          "indexed": false,
          "name": "storefrontId",
          "type": "bytes32"
        },
        {
          "indexed": false,
          "name": "amount",
          "type": "uint256"
        }
      ],
      "name": "BalanceWithdrawn",
      "type": "event"
    },
    {
      "anonymous": false,
      "inputs": [
        {
          "indexed": false,
          "name": "id",
          "type": "bytes32"
        },
        {
          "indexed": false,
          "name": "name",
          "type": "string"
        },
        {
          "indexed": false,
          "name": "description",
          "type": "string"
        },
        {
          "indexed": false,
          "name": "price",
          "type": "uint256"
        },
        {
          "indexed": false,
          "name": "qty",
          "type": "uint256"
        },
        {
          "indexed": false,
          "name": "storefrontId",
          "type": "bytes32"
        }
      ],
      "name": "ProductCreated",
      "type": "event"
    },
    {
      "anonymous": false,
      "inputs": [
        {
          "indexed": false,
          "name": "productId",
          "type": "bytes32"
        },
        {
          "indexed": false,
          "name": "storefrontId",
          "type": "bytes32"
        }
      ],
      "name": "ProductRemoved",
      "type": "event"
    },
    {
      "anonymous": false,
      "inputs": [
        {
          "indexed": false,
          "name": "productId",
          "type": "bytes32"
        },
        {
          "indexed": false,
          "name": "oldPrice",
          "type": "uint256"
        },
        {
          "indexed": false,
          "name": "newPrice",
          "type": "uint256"
        }
      ],
      "name": "PriceUpdated",
      "type": "event"
    },
    {
      "anonymous": false,
      "inputs": [
        {
          "indexed": false,
          "name": "productId",
          "type": "bytes32"
        },
        {
          "indexed": false,
          "name": "storefrontId",
          "type": "bytes32"
        },
        {
          "indexed": false,
          "name": "price",
          "type": "uint256"
        },
        {
          "indexed": false,
          "name": "qty",
          "type": "uint256"
        },
        {
          "indexed": false,
          "name": "total",
          "type": "uint256"
        },
        {
          "indexed": false,
          "name": "buyer",
          "type": "address"
        },
        {
          "indexed": false,
          "name": "newQuantity",
          "type": "uint256"
        }
      ],
      "name": "ProductSold",
      "type": "event"
    },
    {
      "anonymous": false,
      "inputs": [],
      "name": "Pause",
      "type": "event"
    },
    {
      "anonymous": false,
      "inputs": [],
      "name": "Unpause",
      "type": "event"
    },
    {
      "anonymous": false,
      "inputs": [
        {
          "indexed": true,
          "name": "previousOwner",
          "type": "address"
        },
        {
          "indexed": true,
          "name": "newOwner",
          "type": "address"
        }
      ],
      "name": "OwnershipTransferred",
      "type": "event"
    },
    {
      "constant": true,
      "inputs": [],
      "name": "getBalance",
      "outputs": [
        {
          "name": "",
          "type": "uint256"
        }
      ],
      "payable": false,
      "stateMutability": "view",
      "type": "function"
    },
    {
      "constant": true,
      "inputs": [],
      "name": "getTotalStorefrontsCount",
      "outputs": [
        {
          "name": "",
          "type": "uint256"
        }
      ],
      "payable": false,
      "stateMutability": "view",
      "type": "function"
    },
    {
      "constant": false,
      "inputs": [
        {
          "name": "name",
          "type": "string"
        }
      ],
      "name": "createStorefront",
      "outputs": [
        {
          "name": "",
          "type": "bytes32"
        }
      ],
      "payable": false,
      "stateMutability": "nonpayable",
      "type": "function"
    },
    {
      "constant": false,
      "inputs": [
        {
          "name": "id",
          "type": "bytes32"
        }
      ],
      "name": "removeStorefront",
      "outputs": [],
      "payable": false,
      "stateMutability": "nonpayable",
      "type": "function"
    },
    {
      "constant": false,
      "inputs": [
        {
          "name": "storefrontId",
          "type": "bytes32"
        }
      ],
      "name": "withdrawStorefrontBalance",
      "outputs": [],
      "payable": false,
      "stateMutability": "nonpayable",
      "type": "function"
    },
    {
      "constant": true,
      "inputs": [
        {
          "name": "owner",
          "type": "address"
        }
      ],
      "name": "getStorefrontCount",
      "outputs": [
        {
          "name": "",
          "type": "uint256"
        }
      ],
      "payable": false,
      "stateMutability": "view",
      "type": "function"
    },
    {
      "constant": true,
      "inputs": [
        {
          "name": "storefrontIndex",
          "type": "uint256"
        }
      ],
      "name": "getStorefrontId",
      "outputs": [
        {
          "name": "",
          "type": "bytes32"
        }
      ],
      "payable": false,
      "stateMutability": "view",
      "type": "function"
    },
    {
      "constant": true,
      "inputs": [
        {
          "name": "storefrontId",
          "type": "bytes32"
        }
      ],
      "name": "getStorefrontOwner",
      "outputs": [
        {
          "name": "",
          "type": "address"
        }
      ],
      "payable": false,
      "stateMutability": "view",
      "type": "function"
    },
    {
      "constant": true,
      "inputs": [
        {
          "name": "owner",
          "type": "address"
        },
        {
          "name": "storefrontIndex",
          "type": "uint256"
        }
      ],
      "name": "getStorefrontsId",
      "outputs": [
        {
          "name": "",
          "type": "bytes32"
        }
      ],
      "payable": false,
      "stateMutability": "view",
      "type": "function"
    },
    {
      "constant": true,
      "inputs": [
        {
          "name": "storefrontId",
          "type": "bytes32"
        }
      ],
      "name": "getStorefrontName",
      "outputs": [
        {
          "name": "",
          "type": "string"
        }
      ],
      "payable": false,
      "stateMutability": "view",
      "type": "function"
    },
    {
      "constant": true,
      "inputs": [
        {
          "name": "storefrontId",
          "type": "bytes32"
        }
      ],
      "name": "getStorefrontBalance",
      "outputs": [
        {
          "name": "",
          "type": "uint256"
        }
      ],
      "payable": false,
      "stateMutability": "view",
      "type": "function"
    },
    {
      "constant": false,
      "inputs": [
        {
          "name": "storefrontId",
          "type": "bytes32"
        },
        {
          "name": "name",
          "type": "string"
        },
        {
          "name": "description",
          "type": "string"
        },
        {
          "name": "price",
          "type": "uint256"
        },
        {
          "name": "qty",
          "type": "uint256"
        }
      ],
      "name": "addProduct",
      "outputs": [
        {
          "name": "",
          "type": "bytes32"
        }
      ],
      "payable": false,
      "stateMutability": "nonpayable",
      "type": "function"
    },
    {
      "constant": false,
      "inputs": [
        {
          "name": "storefrontId",
          "type": "bytes32"
        },
        {
          "name": "productId",
          "type": "bytes32"
        },
        {
          "name": "newPrice",
          "type": "uint256"
        }
      ],
      "name": "updateProductPrice",
      "outputs": [],
      "payable": false,
      "stateMutability": "nonpayable",
      "type": "function"
    },
    {
      "constant": true,
      "inputs": [
        {
          "name": "productId",
          "type": "bytes32"
        }
      ],
      "name": "getProductPrice",
      "outputs": [
        {
          "name": "",
          "type": "uint256"
        }
      ],
      "payable": false,
      "stateMutability": "view",
      "type": "function"
    },
    {
      "constant": true,
      "inputs": [
        {
          "name": "productId",
          "type": "bytes32"
        }
      ],
      "name": "getProductName",
      "outputs": [
        {
          "name": "",
          "type": "string"
        }
      ],
      "payable": false,
      "stateMutability": "view",
      "type": "function"
    },
    {
      "constant": true,
      "inputs": [
        {
          "name": "productId",
          "type": "bytes32"
        }
      ],
      "name": "getProduct",
      "outputs": [
        {
          "name": "",
          "type": "string"
        },
        {
          "name": "",
          "type": "string"
        },
        {
          "name": "",
          "type": "uint256"
        },
        {
          "name": "",
          "type": "uint256"
        },
        {
          "name": "",
          "type": "bytes32"
        }
      ],
      "payable": false,
      "stateMutability": "view",
      "type": "function"
    },
    {
      "constant": false,
      "inputs": [
        {
          "name": "storefrontId",
          "type": "bytes32"
        },
        {
          "name": "productId",
          "type": "bytes32"
        }
      ],
      "name": "removeProduct",
      "outputs": [],
      "payable": false,
      "stateMutability": "nonpayable",
      "type": "function"
    },
    {
      "constant": true,
      "inputs": [
        {
          "name": "storefrontId",
          "type": "bytes32"
        }
      ],
      "name": "getProductCount",
      "outputs": [
        {
          "name": "",
          "type": "uint256"
        }
      ],
      "payable": false,
      "stateMutability": "view",
      "type": "function"
    },
    {
      "constant": true,
      "inputs": [
        {
          "name": "storefrontId",
          "type": "bytes32"
        },
        {
          "name": "productIndex",
          "type": "uint256"
        }
      ],
      "name": "getProductId",
      "outputs": [
        {
          "name": "",
          "type": "bytes32"
        }
      ],
      "payable": false,
      "stateMutability": "view",
      "type": "function"
    },
    {
      "constant": false,
      "inputs": [
        {
          "name": "storefrontId",
          "type": "bytes32"
        },
        {
          "name": "productId",
          "type": "bytes32"
        },
        {
          "name": "qty",
          "type": "uint256"
        }
      ],
      "name": "purchaseProduct",
      "outputs": [
        {
          "name": "",
          "type": "bool"
        }
      ],
      "payable": true,
      "stateMutability": "payable",
      "type": "function"
    }
  ],
  "bytecode": "0x608060405260008060146101000a81548160ff02191690831515021790555034801561002a57600080fd5b50604051602080612fd18339810180604052602081101561004a57600080fd5b8101908080519060200190929190505050336000806101000a81548173ffffffffffffffffffffffffffffffffffffffff021916908373ffffffffffffffffffffffffffffffffffffffff16021790555080600260006101000a81548173ffffffffffffffffffffffffffffffffffffffff021916908373ffffffffffffffffffffffffffffffffffffffff16021790555080600160006101000a81548173ffffffffffffffffffffffffffffffffffffffff021916908373ffffffffffffffffffffffffffffffffffffffff16021790555050612ea48061012d6000396000f3fe608060405260043610610174576000357c0100000000000000000000000000000000000000000000000000000000900463ffffffff16806254cb2214610179578063071722e3146101b45780630a2e8bbc1461021957806312065fe01461028857806321ae6b4c146102b357806332dd76ec1461030d57806335077fc41461049e5780633a20e9df146104ef5780633f4ba83a146106245780633f9c36951461063b57806340be4880146106ef57806343cadb071461074657806343d726d61461079557806346b463ac146107ac57806354ce122f146107fb57806359f0dc5a146108265780635c975abb1461086b57806376ddf4fd1461089a5780638282c7f7146108f35780638456cb591461094a5780638da5cb5b1461096157806391c57e73146109b8578063a51e286614610a07578063aa5594ca14610a56578063c01b7b2814610b0a578063d0c8d6e714610b59578063ddc9c68714610c35578063f26cb8b214610cb0578063f2fde38b14610ceb575b600080fd5b34801561018557600080fd5b506101b26004803603602081101561019c57600080fd5b8101908080359060200190929190505050610d3c565b005b3480156101c057600080fd5b50610203600480360360208110156101d757600080fd5b81019080803573ffffffffffffffffffffffffffffffffffffffff169060200190929190505050610eb0565b6040518082815260200191505060405180910390f35b34801561022557600080fd5b506102726004803603604081101561023c57600080fd5b81019080803573ffffffffffffffffffffffffffffffffffffffff16906020019092919080359060200190929190505050610efc565b6040518082815260200191505060405180910390f35b34801561029457600080fd5b5061029d610f5d565b6040518082815260200191505060405180910390f35b6102f3600480360360608110156102c957600080fd5b81019080803590602001909291908035906020019092919080359060200190929190505050610f7c565b604051808215151515815260200191505060405180910390f35b34801561031957600080fd5b50610488600480360360a081101561033057600080fd5b81019080803590602001909291908035906020019064010000000081111561035757600080fd5b82018360208201111561036957600080fd5b8035906020019184600183028401116401000000008311171561038b57600080fd5b91908080601f016020809104026020016040519081016040528093929190818152602001838380828437600081840152601f19601f820116905080830192505050505050509192919290803590602001906401000000008111156103ee57600080fd5b82018360208201111561040057600080fd5b8035906020019184600183028401116401000000008311171561042257600080fd5b91908080601f016020809104026020016040519081016040528093929190818152602001838380828437600081840152601f19601f8201169050808301925050505050505091929192908035906020019092919080359060200190929190505050611295565b6040518082815260200191505060405180910390f35b3480156104aa57600080fd5b506104ed600480360360208110156104c157600080fd5b81019080803573ffffffffffffffffffffffffffffffffffffffff169060200190929190505050611676565b005b3480156104fb57600080fd5b506105286004803603602081101561051257600080fd5b81019080803590602001909291905050506116ea565b604051808060200180602001868152602001858152602001848152602001838103835288818151815260200191508051906020019080838360005b8381101561057e578082015181840152602081019050610563565b50505050905090810190601f1680156105ab5780820380516001836020036101000a031916815260200191505b50838103825287818151815260200191508051906020019080838360005b838110156105e45780820151818401526020810190506105c9565b50505050905090810190601f1680156106115780820380516001836020036101000a031916815260200191505b5097505050505050505060405180910390f35b34801561063057600080fd5b506106396118ae565b005b34801561064757600080fd5b506106746004803603602081101561065e57600080fd5b810190808035906020019092919050505061196c565b6040518080602001828103825283818151815260200191508051906020019080838360005b838110156106b4578082015181840152602081019050610699565b50505050905090810190601f1680156106e15780820380516001836020036101000a031916815260200191505b509250505060405180910390f35b3480156106fb57600080fd5b50610704611a24565b604051808273ffffffffffffffffffffffffffffffffffffffff1673ffffffffffffffffffffffffffffffffffffffff16815260200191505060405180910390f35b34801561075257600080fd5b5061077f6004803603602081101561076957600080fd5b8101908080359060200190929190505050611a4a565b6040518082815260200191505060405180910390f35b3480156107a157600080fd5b506107aa611a6a565b005b3480156107b857600080fd5b506107e5600480360360208110156107cf57600080fd5b8101908080359060200190929190505050611aff565b6040518082815260200191505060405180910390f35b34801561080757600080fd5b50610810611b22565b6040518082815260200191505060405180910390f35b34801561083257600080fd5b506108696004803603604081101561084957600080fd5b810190808035906020019092919080359060200190929190505050611b2f565b005b34801561087757600080fd5b50610880611d5d565b604051808215151515815260200191505060405180910390f35b3480156108a657600080fd5b506108dd600480360360408110156108bd57600080fd5b810190808035906020019092919080359060200190929190505050611d70565b6040518082815260200191505060405180910390f35b3480156108ff57600080fd5b50610908611da5565b604051808273ffffffffffffffffffffffffffffffffffffffff1673ffffffffffffffffffffffffffffffffffffffff16815260200191505060405180910390f35b34801561095657600080fd5b5061095f611dcb565b005b34801561096d57600080fd5b50610976611e8b565b604051808273ffffffffffffffffffffffffffffffffffffffff1673ffffffffffffffffffffffffffffffffffffffff16815260200191505060405180910390f35b3480156109c457600080fd5b506109f1600480360360208110156109db57600080fd5b8101908080359060200190929190505050611eb0565b6040518082815260200191505060405180910390f35b348015610a1357600080fd5b50610a5460048036036060811015610a2a57600080fd5b81019080803590602001909291908035906020019092919080359060200190929190505050611ed0565b005b348015610a6257600080fd5b50610a8f60048036036020811015610a7957600080fd5b8101908080359060200190929190505050612165565b6040518080602001828103825283818151815260200191508051906020019080838360005b83811015610acf578082015181840152602081019050610ab4565b50505050905090810190601f168015610afc5780820380516001836020036101000a031916815260200191505b509250505060405180910390f35b348015610b1657600080fd5b50610b4360048036036020811015610b2d57600080fd5b810190808035906020019092919050505061221d565b6040518082815260200191505060405180910390f35b348015610b6557600080fd5b50610c1f60048036036020811015610b7c57600080fd5b8101908080359060200190640100000000811115610b9957600080fd5b820183602082011115610bab57600080fd5b80359060200191846001830284011164010000000083111715610bcd57600080fd5b91908080601f016020809104026020016040519081016040528093929190818152602001838380828437600081840152601f19601f82011690508083019250505050505050919291929050505061223d565b6040518082815260200191505060405180910390f35b348015610c4157600080fd5b50610c6e60048036036020811015610c5857600080fd5b810190808035906020019092919050505061268b565b604051808273ffffffffffffffffffffffffffffffffffffffff1673ffffffffffffffffffffffffffffffffffffffff16815260200191505060405180910390f35b348015610cbc57600080fd5b50610ce960048036036020811015610cd357600080fd5b81019080803590602001909291905050506126cb565b005b348015610cf757600080fd5b50610d3a60048036036020811015610d0e57600080fd5b81019080803573ffffffffffffffffffffffffffffffffffffffff169060200190929190505050612bb7565b005b803373ffffffffffffffffffffffffffffffffffffffff166005600083815260200190815260200160002060020160009054906101000a900473ffffffffffffffffffffffffffffffffffffffff1673ffffffffffffffffffffffffffffffffffffffff16141515610dad57600080fd5b600060149054906101000a900460ff16151515610dc957600080fd5b60006005600084815260200190815260200160002060030154111515610dee57600080fd5b6000600560008481526020019081526020016000206003015490503373ffffffffffffffffffffffffffffffffffffffff166108fc829081150290604051600060405180830381858888f19350505050158015610e4f573d6000803e3d6000fd5b507fb7576a710fcc891d13513585bab7cd7b441b1f0aeb4ded4d5052fb7b27301efc8382604051808381526020018281526020019250505060405180910390a160006005600085815260200190815260200160002060030181905550505050565b6000600460008373ffffffffffffffffffffffffffffffffffffffff1673ffffffffffffffffffffffffffffffffffffffff168152602001908152602001600020805490509050919050565b6000600460008473ffffffffffffffffffffffffffffffffffffffff1673ffffffffffffffffffffffffffffffffffffffff16815260200190815260200160002082815481101515610f4a57fe5b9060005260206000200154905092915050565b60003073ffffffffffffffffffffffffffffffffffffffff1631905090565b60008060149054906101000a900460ff16151515610f9957600080fd5b610fa1612d0c565b6007600085815260200190815260200160002060c0604051908101604052908160008201548152602001600182018054600181600116156101000203166002900480601f0160208091040260200160405190810160405280929190818152602001828054600181600116156101000203166002900480156110635780601f1061103857610100808354040283529160200191611063565b820191906000526020600020905b81548152906001019060200180831161104657829003601f168201915b50505050508152602001600282018054600181600116156101000203166002900480601f0160208091040260200160405190810160405280929190818152602001828054600181600116156101000203166002900480156111055780601f106110da57610100808354040283529160200191611105565b820191906000526020600020905b8154815290600101906020018083116110e857829003601f168201915b5050505050815260200160038201548152602001600482015481526020016005820154815250509050600083826060015102905080341015151561114857600080fd5b8160800151841115151561115b57600080fd5b803411156111b357600081340390503373ffffffffffffffffffffffffffffffffffffffff166108fc829081150290604051600060405180830381858888f193505050501580156111b0573d6000803e3d6000fd5b50505b838260800181815103915081815250508382606001510260056000888152602001908152602001600020600301600082825401925050819055507f7908e2a768805667ab950902d0fe58c8136a7d0d8d216b37f55c1a670f216f04858784606001518785338860800151604051808881526020018781526020018681526020018581526020018481526020018373ffffffffffffffffffffffffffffffffffffffff1673ffffffffffffffffffffffffffffffffffffffff16815260200182815260200197505050505050505060405180910390a16001925050509392505050565b6000853373ffffffffffffffffffffffffffffffffffffffff166005600083815260200190815260200160002060020160009054906101000a900473ffffffffffffffffffffffffffffffffffffffff1673ffffffffffffffffffffffffffffffffffffffff1614151561130857600080fd5b600060149054906101000a900460ff1615151561132457600080fd5b6000338888888888604051602001808773ffffffffffffffffffffffffffffffffffffffff1673ffffffffffffffffffffffffffffffffffffffff166c0100000000000000000000000002815260140186815260200185805190602001908083835b6020831015156113ab5780518252602082019150602081019050602083039250611386565b6001836020036101000a03801982511681845116808217855250505050505090500184805190602001908083835b6020831015156113fe57805182526020820191506020810190506020830392506113d9565b6001836020036101000a0380198251168184511680821785525050505050509050018381526020018281526020019650505050505050604051602081830303815290604052805190602001209050611454612d0c565b60c0604051908101604052808381526020018981526020018881526020018781526020018681526020018a8152509050600660008a815260200190815260200160002082908060018154018082558091505090600182039060005260206000200160009091929091909150555080600760008481526020019081526020016000206000820151816000015560208201518160010190805190602001906114fb929190612d49565b506040820151816002019080519060200190611518929190612d49565b50606082015181600301556080820151816004015560a082015181600501559050507fd6f06da506a6a9f4ad6f1228e309816cf3d901169d4caece6e6a2083e66c612682898989898e604051808781526020018060200180602001868152602001858152602001848152602001838103835288818151815260200191508051906020019080838360005b838110156115bd5780820151818401526020810190506115a2565b50505050905090810190601f1680156115ea5780820380516001836020036101000a031916815260200191505b50838103825287818151815260200191508051906020019080838360005b83811015611623578082015181840152602081019050611608565b50505050905090810190601f1680156116505780820380516001836020036101000a031916815260200191505b509850505050505050505060405180910390a18060000151935050505095945050505050565b6000809054906101000a900473ffffffffffffffffffffffffffffffffffffffff1673ffffffffffffffffffffffffffffffffffffffff163373ffffffffffffffffffffffffffffffffffffffff161415156116d157600080fd5b8073ffffffffffffffffffffffffffffffffffffffff16ff5b606080600080600060076000878152602001908152602001600020600101600760008881526020019081526020016000206002016007600089815260200190815260200160002060030154600760008a815260200190815260200160002060040154600760008b815260200190815260200160002060050154848054600181600116156101000203166002900480601f0160208091040260200160405190810160405280929190818152602001828054600181600116156101000203166002900480156117f85780601f106117cd576101008083540402835291602001916117f8565b820191906000526020600020905b8154815290600101906020018083116117db57829003601f168201915b50505050509450838054600181600116156101000203166002900480601f0160208091040260200160405190810160405280929190818152602001828054600181600116156101000203166002900480156118945780601f1061186957610100808354040283529160200191611894565b820191906000526020600020905b81548152906001019060200180831161187757829003601f168201915b505050505093509450945094509450945091939590929450565b6000809054906101000a900473ffffffffffffffffffffffffffffffffffffffff1673ffffffffffffffffffffffffffffffffffffffff163373ffffffffffffffffffffffffffffffffffffffff1614151561190957600080fd5b600060149054906101000a900460ff16151561192457600080fd5b60008060146101000a81548160ff0219169083151502179055507f7805862f689e2f13df9f062ff482ad3ad112aca9e0847911ed832e158c525b3360405160405180910390a1565b6060600560008381526020019081526020016000206001018054600181600116156101000203166002900480601f016020809104026020016040519081016040528092919081815260200182805460018160011615610100020316600290048015611a185780601f106119ed57610100808354040283529160200191611a18565b820191906000526020600020905b8154815290600101906020018083116119fb57829003601f168201915b50505050509050919050565b600260009054906101000a900473ffffffffffffffffffffffffffffffffffffffff1681565b600060066000838152602001908152602001600020805490509050919050565b6000809054906101000a900473ffffffffffffffffffffffffffffffffffffffff1673ffffffffffffffffffffffffffffffffffffffff163373ffffffffffffffffffffffffffffffffffffffff16141515611ac557600080fd5b6000809054906101000a900473ffffffffffffffffffffffffffffffffffffffff1673ffffffffffffffffffffffffffffffffffffffff16ff5b6000600382815481101515611b1057fe5b90600052602060002001549050919050565b6000600380549050905090565b813373ffffffffffffffffffffffffffffffffffffffff166005600083815260200190815260200160002060020160009054906101000a900473ffffffffffffffffffffffffffffffffffffffff1673ffffffffffffffffffffffffffffffffffffffff16141515611ba057600080fd5b600060149054906101000a900460ff16151515611bbc57600080fd5b606060066000858152602001908152602001600020805480602002602001604051908101604052809291908181526020018280548015611c1b57602002820191906000526020600020905b815481526020019060010190808311611c07575b5050505050905060008151905060008090505b81811015611d5557848382815181101515611c4557fe5b906020019060200201511415611d48578260018303815181101515611c6657fe5b906020019060200201518382815181101515611c7e57fe5b90602001906020020181815250508260018303815181101515611c9d57fe5b906020019060200201600080191681525060076000868152602001908152602001600020600080820160009055600182016000611cda9190612dc9565b600282016000611cea9190612dc9565b60038201600090556004820160009055600582016000905550507f9396d89cfd36885055291073c496c2bc497cca89a17ca88b5831153129be8f3f8587604051808381526020018281526020019250505060405180910390a1611d55565b8080600101915050611c2e565b505050505050565b600060149054906101000a900460ff1681565b60006006600084815260200190815260200160002082815481101515611d9257fe5b9060005260206000200154905092915050565b600160009054906101000a900473ffffffffffffffffffffffffffffffffffffffff1681565b6000809054906101000a900473ffffffffffffffffffffffffffffffffffffffff1673ffffffffffffffffffffffffffffffffffffffff163373ffffffffffffffffffffffffffffffffffffffff16141515611e2657600080fd5b600060149054906101000a900460ff16151515611e4257600080fd5b6001600060146101000a81548160ff0219169083151502179055507f6985a02210a168e66602d3235cb6db0e70f92b3ba4d376a33c0f3d9434bff62560405160405180910390a1565b6000809054906101000a900473ffffffffffffffffffffffffffffffffffffffff1681565b600060076000838152602001908152602001600020600301549050919050565b823373ffffffffffffffffffffffffffffffffffffffff166005600083815260200190815260200160002060020160009054906101000a900473ffffffffffffffffffffffffffffffffffffffff1673ffffffffffffffffffffffffffffffffffffffff16141515611f4157600080fd5b600060149054906101000a900460ff16151515611f5d57600080fd5b611f65612d0c565b6007600085815260200190815260200160002060c0604051908101604052908160008201548152602001600182018054600181600116156101000203166002900480601f0160208091040260200160405190810160405280929190818152602001828054600181600116156101000203166002900480156120275780601f10611ffc57610100808354040283529160200191612027565b820191906000526020600020905b81548152906001019060200180831161200a57829003601f168201915b50505050508152602001600282018054600181600116156101000203166002900480601f0160208091040260200160405190810160405280929190818152602001828054600181600116156101000203166002900480156120c95780601f1061209e576101008083540402835291602001916120c9565b820191906000526020600020905b8154815290600101906020018083116120ac57829003601f168201915b50505050508152602001600382015481526020016004820154815260200160058201548152505090506000816060015190508360076000878152602001908152602001600020600301819055507fbcd10d64fce9dcf9568572ed92e371df336d32649e8960a045c9548794a44b2685828660405180848152602001838152602001828152602001935050505060405180910390a1505050505050565b6060600760008381526020019081526020016000206001018054600181600116156101000203166002900480601f0160208091040260200160405190810160405280929190818152602001828054600181600116156101000203166002900480156122115780601f106121e657610100808354040283529160200191612211565b820191906000526020600020905b8154815290600101906020018083116121f457829003601f168201915b50505050509050919050565b600060056000838152602001908152602001600020600301549050919050565b600060011515600260009054906101000a900473ffffffffffffffffffffffffffffffffffffffff1673ffffffffffffffffffffffffffffffffffffffff1663df301498336040518263ffffffff167c0100000000000000000000000000000000000000000000000000000000028152600401808273ffffffffffffffffffffffffffffffffffffffff1673ffffffffffffffffffffffffffffffffffffffff16815260200191505060206040518083038186803b1580156122fe57600080fd5b505afa158015612312573d6000803e3d6000fd5b505050506040513d602081101561232857600080fd5b8101908080519060200190929190505050151514151561234757600080fd5b600060149054906101000a900460ff1615151561236357600080fd5b6000338342604051602001808473ffffffffffffffffffffffffffffffffffffffff1673ffffffffffffffffffffffffffffffffffffffff166c0100000000000000000000000002815260140183805190602001908083835b6020831015156123e157805182526020820191506020810190506020830392506123bc565b6001836020036101000a038019825116818451168082178552505050505050905001828152602001935050505060405160208183030381529060405280519060200120905061242e612e11565b6080604051908101604052808381526020018581526020013373ffffffffffffffffffffffffffffffffffffffff16815260200160008152509050600460003373ffffffffffffffffffffffffffffffffffffffff1673ffffffffffffffffffffffffffffffffffffffff168152602001908152602001600020816000015190806001815401808255809150509060018203906000526020600020016000909192909190915055508060056000848152602001908152602001600020600082015181600001556020820151816001019080519060200190612510929190612d49565b5060408201518160020160006101000a81548173ffffffffffffffffffffffffffffffffffffffff021916908373ffffffffffffffffffffffffffffffffffffffff160217905550606082015181600301559050506003816000015190806001815401808255809150509060018203906000526020600020016000909192909190915055507f63b1e6cf44931a3824f6f14a47a4fa82702fc1cdb53a164de2071dd0a356ecac8285336125c233610eb0565b60405180858152602001806020018473ffffffffffffffffffffffffffffffffffffffff1673ffffffffffffffffffffffffffffffffffffffff168152602001838152602001828103825285818151815260200191508051906020019080838360005b83811015612640578082015181840152602081019050612625565b50505050905090810190601f16801561266d5780820380516001836020036101000a031916815260200191505b509550505050505060405180910390a1806000015192505050919050565b60006005600083815260200190815260200160002060020160009054906101000a900473ffffffffffffffffffffffffffffffffffffffff169050919050565b803373ffffffffffffffffffffffffffffffffffffffff166005600083815260200190815260200160002060020160009054906101000a900473ffffffffffffffffffffffffffffffffffffffff1673ffffffffffffffffffffffffffffffffffffffff1614151561273c57600080fd5b600060149054906101000a900460ff1615151561275857600080fd5b600060066000848152602001908152602001600020905060008090505b81805490508110156128185760076000838381548110151561279357fe5b906000526020600020015481526020019081526020016000206000808201600090556001820160006127c59190612dc9565b6002820160006127d59190612dc9565b600382016000905560048201600090556005820160009055505081818154811015156127fd57fe5b90600052602060002001600090558080600101915050612775565b506000600460003373ffffffffffffffffffffffffffffffffffffffff1673ffffffffffffffffffffffffffffffffffffffff16815260200190815260200160002080549050905060008090505b818110156129ef5784600460003373ffffffffffffffffffffffffffffffffffffffff1673ffffffffffffffffffffffffffffffffffffffff168152602001908152602001600020828154811015156128bb57fe5b906000526020600020015414156129e257600460003373ffffffffffffffffffffffffffffffffffffffff1673ffffffffffffffffffffffffffffffffffffffff1681526020019081526020016000206001830381548110151561291b57fe5b9060005260206000200154600460003373ffffffffffffffffffffffffffffffffffffffff1673ffffffffffffffffffffffffffffffffffffffff1681526020019081526020016000208281548110151561297257fe5b9060005260206000200181905550600460003373ffffffffffffffffffffffffffffffffffffffff1673ffffffffffffffffffffffffffffffffffffffff168152602001908152602001600020600183038154811015156129cf57fe5b90600052602060002001600090556129ef565b8080600101915050612866565b6003805490509150600090505b81811015612a545784600382815481101515612a1457fe5b90600052602060002001541415612a4757600381815481101515612a3457fe5b9060005260206000200160009055612a54565b80806001019150506129fc565b6000600560008781526020019081526020016000206003015490506000811115612b1b573373ffffffffffffffffffffffffffffffffffffffff166108fc829081150290604051600060405180830381858888f19350505050158015612abe573d6000803e3d6000fd5b50600060056000888152602001908152602001600020600301819055507fb7576a710fcc891d13513585bab7cd7b441b1f0aeb4ded4d5052fb7b27301efc8682604051808381526020018281526020019250505060405180910390a15b60056000878152602001908152602001600020600080820160009055600182016000612b479190612dc9565b6002820160006101000a81549073ffffffffffffffffffffffffffffffffffffffff0219169055600382016000905550507fa16d84ad81a40b510e191d53e48b35c490398b47c2a058f71f876ed1edbc62ff866040518082815260200191505060405180910390a1505050505050565b6000809054906101000a900473ffffffffffffffffffffffffffffffffffffffff1673ffffffffffffffffffffffffffffffffffffffff163373ffffffffffffffffffffffffffffffffffffffff16141515612c1257600080fd5b600073ffffffffffffffffffffffffffffffffffffffff168173ffffffffffffffffffffffffffffffffffffffff1614151515612c4e57600080fd5b8073ffffffffffffffffffffffffffffffffffffffff166000809054906101000a900473ffffffffffffffffffffffffffffffffffffffff1673ffffffffffffffffffffffffffffffffffffffff167f8be0079c531659141344cd1fd0a4f28419497f9722a3daafe3b4186f6b6457e060405160405180910390a3806000806101000a81548173ffffffffffffffffffffffffffffffffffffffff021916908373ffffffffffffffffffffffffffffffffffffffff16021790555050565b60c0604051908101604052806000801916815260200160608152602001606081526020016000815260200160008152602001600080191681525090565b828054600181600116156101000203166002900490600052602060002090601f016020900481019282601f10612d8a57805160ff1916838001178555612db8565b82800160010185558215612db8579182015b82811115612db7578251825591602001919060010190612d9c565b5b509050612dc59190612e53565b5090565b50805460018160011615610100020316600290046000825580601f10612def5750612e0e565b601f016020900490600052602060002090810190612e0d9190612e53565b5b50565b6080604051908101604052806000801916815260200160608152602001600073ffffffffffffffffffffffffffffffffffffffff168152602001600081525090565b612e7591905b80821115612e71576000816000905550600101612e59565b5090565b9056fea165627a7a72305820935b8f66cd073c316f412ca137948e09281e6f107c374a575a989de78036784d0029",
  "source": "pragma solidity >0.4.99 <0.6.0;\n\n/*\nimport \"../installed_contracts/zeppelin/contracts/ownership/Ownable.sol\";\nimport \"../installed_contracts/zeppelin/contracts/lifecycle/Destructible.sol\";\nimport \"../installed_contracts/zeppelin/contracts/lifecycle/Pausable.sol\";\n*/\n\nimport './Marketplace.sol';\n\n/*\n* @dev This contract is for  store owners to manage their storefront and purchasers to buy products.\n*\n*/\ncontract Stores is Ownable, mortal, Pausable {\n\taddress public marketplaceId;\n\tMarketplace public marketplaceInstance;\n\n\t/** @dev Constructor. Links with Marketplace contract\n\t* @param marketplaceContract Address of Marketplace contract to link\n\t*/\n\tconstructor(address marketplaceContract) public {\n\t\tmarketplaceInstance = Marketplace(marketplaceContract);\n\t\tmarketplaceId = marketplaceContract;\n\t}\n\n\t/** @dev Struct that stores Storeront data\n\t* @param id Storefront id\n\t* @param name Storefront name\n\t* @param owner Address of owner of storefront\n\t* @param balance Storefront balance\n\t*/\n\tstruct Storefront {\n\t\tbytes32 id;\n\t\tstring name;\n\t\taddress owner;\n\t\tuint balance;\n\t}\n\n\t/** @dev Struct that stores Product data\n\t* @param id Product id\n\t* @param name Product name\n\t* @param description Product description\n\t* @param price Product price\n\t* @param qty Product quantity\n\t* @param storefrontId Id of storefront in which product belongs\n\t*/\n\tstruct Product {\n\t\tbytes32 id;\n\t\tstring name;\n\t\tstring description;\n\t\tuint price;\n\t\tuint qty;\n\t\tbytes32 storefrontId;\n\t}\n\n\t// Events emmited by the contract\n\tevent StorefrontCreated (\n\t\tbytes32 id,\n\t\tstring name,\n\t\taddress owner,\n\t\tuint totalStores);\n\n\tevent StorefrontRemoved (bytes32 id);\n\n\tevent BalanceWithdrawn (\n\t\tbytes32 storefrontId,\n\t\tuint256 amount);\n\n\tevent ProductCreated (\n\t\tbytes32 id,\n\t\tstring name,\n\t\tstring description,\n\t\tuint price,\n\t\tuint qty,\n\t\tbytes32 storefrontId);\n\n\tevent ProductRemoved (\n\t\tbytes32 productId,\n\t\tbytes32 storefrontId);\n\n\tevent PriceUpdated (\n\t\tbytes32 productId,\n\t\tuint oldPrice,\n\t\tuint newPrice);\n\n\tevent ProductSold (\n\t\tbytes32 productId,\n\t\tbytes32 storefrontId,\n\t\tuint price,\n\t\tuint qty,\n\t\tuint total,\n\t\taddress buyer,\n\t\tuint newQuantity);\n\n\n\t// List of all storefronts\n\tbytes32[] private storefronts;\n\t// Mapping between storefront owners and the IDs of their storefronts\n\tmapping (address => bytes32[]) private storefrontsByOwner;\n\t// Mapping between storefront IDs and their struct\n\tmapping (bytes32 => Storefront) private storefrontById;\n\t// Mapping between storefronts  and the IDs of their products\n\tmapping (bytes32 => bytes32[]) private inventories;\n\t// Mapping between product IDs and their struct\n\tmapping (bytes32 => Product) private productById;\n\n\t// @dev Checks if msg.sender is has storeowner status\n\tmodifier onlyStoreOwner() {\n\t\trequire(marketplaceInstance.checkStoreOwnerStatus(msg.sender) == true);\n\t\t_;\n\t}\n\n\t/** @dev Checks if msg.sender is the owner of a specific storefront\n\t* @param id Storefront id for which to check if msg.sender is the owner\n\t*/\n\tmodifier onlyStorefrontOwner(bytes32 id) {\n\t\trequire(storefrontById[id].owner == msg.sender);\n\t\t_;\n\t}\n\n\t/** @dev Returns the entire balance held by the contract.\n\t* @return Balance held by the contract\n\t*/\n\tfunction getBalance()\n\tview\n\tpublic\n\treturns (uint) {\n\t\treturn address(this).balance;\n\t}\n\n\t/** @dev Returns the number of storefronts (including deleted ones)\n\t* @return The number of storefronts that were created.\n\t*/\n\tfunction getTotalStorefrontsCount()\n\tview\n\tpublic\n\treturns (uint) {\n\t\treturn storefronts.length;\n\t}\n\n\t/** @dev Creates a new storefront.\n\t* Uses msg.sender, the storefront name and `now` to generate storefront id.\n\t* @param name Storefront name\n\t* @return s.id Storefront id\n\t*/\n\tfunction createStorefront(string memory name)\n\tonlyStoreOwner\n\twhenNotPaused\n\tpublic\n\treturns (bytes32) {\n\t\tbytes32 id = keccak256(abi.encodePacked(msg.sender, name, now));\n\t\tStorefront memory s = Storefront(id, name, msg.sender, 0);\n\t\tstorefrontsByOwner[msg.sender].push(s.id);\n\t\tstorefrontById[id] = s;\n\t\tstorefronts.push(s.id);\n\t\temit StorefrontCreated(id, name, msg.sender, getStorefrontCount(msg.sender));\n\t\treturn s.id;\n\t}\n\n\t/** @dev Removes a storefront.\n\t* First removes all its products,\n\t* then removes it from mapping and arrays and\n\t* finally, sends balance to owner.\n\t* @param id Storefront id to remove\n\t*/\n\tfunction removeStorefront(bytes32 id)\n\tonlyStorefrontOwner(id)\n\twhenNotPaused\n\tpublic {\n\t//\tStorefront memory sf = storefrontById[id];\n\t\tbytes32 [] storage inventory = inventories[id];\n\n\t\t// Delete all products from storefront\n\t\tfor (uint i=0; i<inventory.length; i++) {\n\t\t\tdelete productById[inventory[i]];\n\t\t\tdelete inventory[i];\n\t\t}\n\n\t\t// Remove from storefrontsByOwner mapping\n\t\tuint sfCount = storefrontsByOwner[msg.sender].length;\n\t\tuint i;\n\t\tfor(i=0; i<sfCount; i++) {\n\t\t\tif (storefrontsByOwner[msg.sender][i] == id) {\n\t\t\t\tstorefrontsByOwner[msg.sender][i] = storefrontsByOwner[msg.sender][sfCount-1];\n\t\t\t\tdelete storefrontsByOwner[msg.sender][sfCount-1];\n\t\t\t\tbreak;\n\t\t\t}\n\t\t}\n\n\t\t// Remove from storefronts array\n\t\tsfCount = storefronts.length;\n\t\tfor(i=0; i<sfCount; i++) {\n\t\t\tif (storefronts[i] == id) {\n\t\t\t\tdelete storefronts[i];\n\t\t\t\tbreak;\n\t\t\t}\n\t\t}\n\n\t\t// Withdraw Balance\n\t\tuint storefrontBalance = storefrontById[id].balance;\n\t\tif (storefrontBalance > 0) {\n\t\t\tmsg.sender.transfer(storefrontBalance);\n\t\t\tstorefrontById[id].balance = 0;\n\t\t\temit BalanceWithdrawn(id, storefrontBalance);\n\t\t}\n\n\t\t// Remove from storefrontById\n\t\tdelete storefrontById[id];\n\t\temit StorefrontRemoved(id);\n\t}\n\n\t/** @dev Transfers the balance of a storefront to its owner\n\t* @param storefrontId ID of storefront from which to withdraw balance\n\t*/\n\tfunction withdrawStorefrontBalance(bytes32 storefrontId)\n\tonlyStorefrontOwner(storefrontId)\n\twhenNotPaused\n\tpublic {\n\t\trequire(storefrontById[storefrontId].balance > 0);\n\t\tuint storefrontBalance = storefrontById[storefrontId].balance;\n\t\tmsg.sender.transfer(storefrontBalance);\n\t\temit BalanceWithdrawn(storefrontId, storefrontBalance);\n\t\tstorefrontById[storefrontId].balance = 0;\n\t}\n\n\t/** @dev Returns the number of storefronts (including removed ones) associated to a specific owner.\n\t* @param owner Address for which to return the number of owned storefronts\n\t* @return The number of storefronts associated to this address (including removed ones)\n\t*/\n\tfunction getStorefrontCount(address owner)\n\tview\n\tpublic\n\treturns (uint) {\n\t\treturn storefrontsByOwner[owner].length;\n\t}\n\n\t/** @dev Returns the ID of a storefront at a specific index\n\t* @param storefrontIndex Index in storefronts for which to return the ID\n\t* @return storefrontId ID of storefront at specified index\n\t*/\n\tfunction getStorefrontId(uint storefrontIndex)\n\tview\n\tpublic\n\treturns (bytes32) {\n\t\treturn storefronts[storefrontIndex];\n\t}\n\n\t/** @dev Returns the address of a storefront's owner\n\t* @param storefrontId ID for which to return the owner\n\t* @return address Address of the owner of the storefront\n\t*/\n\tfunction getStorefrontOwner(bytes32 storefrontId)\n\tview\n\tpublic\n\treturns (address) {\n\t\treturn storefrontById[storefrontId].owner;\n\t}\n\n\t/** @dev Returns the ID of an owner's storefront at a specific index\n\t* @param owner Address ofthe storefront owner\n\t* @param storefrontIndex Index in owner's storefronts for which to return the ID\n\t* @return storefrontId ID of storefront at specified index in owner's storefronts\n\t*/\n\tfunction getStorefrontsId(address owner, uint storefrontIndex)\n\tview\n\tpublic\n\treturns (bytes32) {\n\t\treturn storefrontsByOwner[owner][storefrontIndex];\n\t}\n\n\t/** @dev Returns the name of a storefront\n\t* @param storefrontId ID for which to return the name\n\t* @return Name of the storefront\n\t*/\n\tfunction getStorefrontName(bytes32 storefrontId)\n\tview\n\tpublic\n\treturns (string memory ) {\n\t\treturn storefrontById[storefrontId].name;\n\t}\n\n\t/** @dev Returns the balance of a storefront\n\t* @param storefrontId ID for which to return the name\n\t* @return Storefront's balance\n\t*/\n\tfunction getStorefrontBalance(bytes32 storefrontId)\n\tview\n\tpublic\n\treturns (uint) {\n\t\treturn storefrontById[storefrontId].balance;\n\t}\n\n\t/** @dev Adds a product to a storefront\n\t* @param storefrontId ID of storefront to add the product to\n\t* @param name Name of Product\n\t* @param description Description of Product\n\t* @param price Price of Product\n\t* @param qty Quantity of Product\n\t* @return id ID of Product\n\t*/\n\tfunction addProduct(bytes32 storefrontId, string memory name, string memory description, uint price, uint qty)\n\tpublic\n\tonlyStorefrontOwner(storefrontId)\n\twhenNotPaused\n\treturns (bytes32) {\n\t\tbytes32 productId = keccak256(abi.encodePacked(msg.sender, storefrontId, name, description, price, qty));\n\t\tProduct memory p = Product(productId, name, description, price, qty, storefrontId);\n\t\tinventories[storefrontId].push(productId);\n\t\tproductById[productId] = p;\n\t\temit ProductCreated(productId, name, description, price, qty, storefrontId);\n\t\treturn p.id;\n\t}\n\n\t/** @dev Updates the price of a product\n\t* @param storefrontId ID of storefront associated with product\n\t* @param productId ID of product for which to update price\n\t* @param newPrice new price to set to product\n\t*/\n\tfunction updateProductPrice(bytes32 storefrontId, bytes32 productId, uint newPrice)\n\tonlyStorefrontOwner(storefrontId)\n\twhenNotPaused\n\tpublic {\n\t\tProduct memory product = productById[productId];\n\t\tuint oldPrice = product.price;\n\t\tproductById[productId].price = newPrice;\n\t\temit PriceUpdated(productId, oldPrice, newPrice);\n\t}\n\n\t/** @dev Returns the price of a product\n\t* @param productId ID for which to return the price\n\t* @return Price of the product\n\t*/\n\tfunction getProductPrice(bytes32 productId)\n\tview\n\tpublic\n\treturns (uint) {\n\t\treturn productById[productId].price;\n\t}\n\n\t/** @dev Returns the name of a product\n\t* @param productId ID for which to return the name\n\t* @return Name of the product\n\t*/\n\tfunction getProductName(bytes32 productId)\n\tview\n\tpublic\n\treturns (string memory) {\n\t\treturn productById[productId].name;\n\t}\n\n\t/** @dev Returns all information about a product\n\t* @param productId ID of product for which to return information\n\t* @return name Name of Product\n\t* @return desc Description of Product\n\t* @return price Price of Product\n\t* @return qty Quantity of Product\n\t* @return storefrontId ID of storefront associated with Product\n\t*/\n\tfunction getProduct(bytes32 productId)\n\tview\n\tpublic\n\treturns (string memory , string memory , uint, uint, bytes32) {\n\t\treturn (productById[productId].name,\n\t\t\t\tproductById[productId].description,\n\t\t\t\tproductById[productId].price,\n\t\t\t\tproductById[productId].qty,\n\t\t\t\tproductById[productId].storefrontId);\n\t}\n\n\t/** @dev Removes a product.\n\t* @param storefrontId Storefront ID for product to remove\n\t* @param productId ID of product to remove\n\t*/\n\tfunction removeProduct(bytes32 storefrontId, bytes32 productId)\n\tonlyStorefrontOwner(storefrontId)\n\twhenNotPaused\n\tpublic {\n\t\tbytes32[] memory inventory = inventories[storefrontId];\n\t\tuint productCount = inventory.length;\n\n\t\tfor(uint i=0; i<productCount; i++) {\n\t\t\tif (inventory[i] == productId) {\n\t\t\t\tinventory[i] = inventory[productCount-1];\n\t\t\t\tdelete inventory[productCount-1];\n\t\t\t\tdelete productById[productId];\n\t\t\t\temit ProductRemoved(productId, storefrontId);\n\t\t\t\tbreak;\n\t\t\t}\n\t\t}\n\t}\n\n\t/** @dev Returns the number of products (including removed ones) associated to a specific storefront.\n\t* @param storefrontId Storefront ID for which to return the number of products\n\t* @return The number of products associated to this storefront (including removed ones)\n\t*/\n\tfunction getProductCount(bytes32 storefrontId)\n\tview\n\tpublic\n\treturns (uint) {\n\t\treturn inventories[storefrontId].length;\n\t}\n\n\t/** @dev Returns the ID of an storefront's product at a specific index\n\t* @param storefrontId ID of the storefront from which to return a product\n\t* @param productIndex Index in storefront's products for which to return the ID\n\t* @return productId ID of product at specified index in storefront's products\n\t*/\n\tfunction getProductId(bytes32 storefrontId, uint productIndex)\n\tview\n\tpublic\n\treturns (bytes32) {\n\t\treturn bytes32(inventories[storefrontId][productIndex]);\n\t}\n\n\t/** @dev Handles the purchase of a product\n\t* @param storefrontId ID of storefront from which to purchase product\n\t* @param productId ID of product to purchase\n\t* @param qty Quantity of product to purchase\n\t* @return True if purchase was executed successfully.\n\t*/\n\tfunction purchaseProduct(bytes32 storefrontId, bytes32 productId, uint qty)\n\tpublic payable\n\twhenNotPaused\n\treturns (bool) {\n\t\t// Fetch product from inventory and perform checks\n\t\tProduct memory product = productById[productId];\n\t\tuint total =  product.price*qty;\n\t\trequire(msg.value >= total);\n\t\trequire(qty <= product.qty);\n\n\t\t// If amount sent is too large, refund the difference\n\t\tif (msg.value > total) {\n\t\t\tuint refund = msg.value - total;\n\t\t\tmsg.sender.transfer(refund);\n\t\t}\n\n\t\t// Update product and storefront attributes\n\t\tproduct.qty -= qty;\n\t\tstorefrontById[storefrontId].balance += product.price*qty;\n\t\temit ProductSold(productId, storefrontId, product.price, qty, total, msg.sender, product.qty);\n\t\treturn true;\n\t}\n}\n",
  "sourcePath": "/home/rama/github/marketplace/contracts/Stores.sol",
  "compiler": {
    "name": "solc",
    "version": "0.5.0+commit.1d4f565a.Emscripten.clang"
  },
  "schemaVersion": "3.0.0",
  "updatedAt": "2019-01-27T14:22:47.775Z",
  "devdoc": {
    "methods": {
      "addProduct(bytes32,string,string,uint256,uint256)": {
        "details": "Adds a product to a storefront",
        "params": {
          "description": "Description of Product",
          "name": "Name of Product",
          "price": "Price of Product",
          "qty": "Quantity of Product",
          "storefrontId": "ID of storefront to add the product to"
        },
        "return": "id ID of Product"
      },
      "constructor": {
        "details": "Constructor. Links with Marketplace contract",
        "params": {
          "marketplaceContract": "Address of Marketplace contract to link"
        }
      },
      "createStorefront(string)": {
        "details": "Creates a new storefront. Uses msg.sender, the storefront name and `now` to generate storefront id.",
        "params": {
          "name": "Storefront name"
        },
        "return": "s.id Storefront id"
      },
      "getBalance()": {
        "details": "Returns the entire balance held by the contract.",
        "return": "Balance held by the contract"
      },
      "getProduct(bytes32)": {
        "details": "Returns all information about a product",
        "params": {
          "productId": "ID of product for which to return information"
        },
        "return": "name Name of Productdesc Description of Productprice Price of Productqty Quantity of ProductstorefrontId ID of storefront associated with Product"
      },
      "getProductCount(bytes32)": {
        "details": "Returns the number of products (including removed ones) associated to a specific storefront.",
        "params": {
          "storefrontId": "Storefront ID for which to return the number of products"
        },
        "return": "The number of products associated to this storefront (including removed ones)"
      },
      "getProductId(bytes32,uint256)": {
        "details": "Returns the ID of an storefront's product at a specific index",
        "params": {
          "productIndex": "Index in storefront's products for which to return the ID",
          "storefrontId": "ID of the storefront from which to return a product"
        },
        "return": "productId ID of product at specified index in storefront's products"
      },
      "getProductName(bytes32)": {
        "details": "Returns the name of a product",
        "params": {
          "productId": "ID for which to return the name"
        },
        "return": "Name of the product"
      },
      "getProductPrice(bytes32)": {
        "details": "Returns the price of a product",
        "params": {
          "productId": "ID for which to return the price"
        },
        "return": "Price of the product"
      },
      "getStorefrontBalance(bytes32)": {
        "details": "Returns the balance of a storefront",
        "params": {
          "storefrontId": "ID for which to return the name"
        },
        "return": "Storefront's balance"
      },
      "getStorefrontCount(address)": {
        "details": "Returns the number of storefronts (including removed ones) associated to a specific owner.",
        "params": {
          "owner": "Address for which to return the number of owned storefronts"
        },
        "return": "The number of storefronts associated to this address (including removed ones)"
      },
      "getStorefrontId(uint256)": {
        "details": "Returns the ID of a storefront at a specific index",
        "params": {
          "storefrontIndex": "Index in storefronts for which to return the ID"
        },
        "return": "storefrontId ID of storefront at specified index"
      },
      "getStorefrontName(bytes32)": {
        "details": "Returns the name of a storefront",
        "params": {
          "storefrontId": "ID for which to return the name"
        },
        "return": "Name of the storefront"
      },
      "getStorefrontOwner(bytes32)": {
        "details": "Returns the address of a storefront's owner",
        "params": {
          "storefrontId": "ID for which to return the owner"
        },
        "return": "address Address of the owner of the storefront"
      },
      "getStorefrontsId(address,uint256)": {
        "details": "Returns the ID of an owner's storefront at a specific index",
        "params": {
          "owner": "Address ofthe storefront owner",
          "storefrontIndex": "Index in owner's storefronts for which to return the ID"
        },
        "return": "storefrontId ID of storefront at specified index in owner's storefronts"
      },
      "getTotalStorefrontsCount()": {
        "details": "Returns the number of storefronts (including deleted ones)",
        "return": "The number of storefronts that were created."
      },
      "purchaseProduct(bytes32,bytes32,uint256)": {
        "details": "Handles the purchase of a product",
        "params": {
          "productId": "ID of product to purchase",
          "qty": "Quantity of product to purchase",
          "storefrontId": "ID of storefront from which to purchase product"
        },
        "return": "True if purchase was executed successfully."
      },
      "removeProduct(bytes32,bytes32)": {
        "details": "Removes a product.",
        "params": {
          "productId": "ID of product to remove",
          "storefrontId": "Storefront ID for product to remove"
        }
      },
      "removeStorefront(bytes32)": {
        "details": "Removes a storefront. First removes all its products, then removes it from mapping and arrays and finally, sends balance to owner.",
        "params": {
          "id": "Storefront id to remove"
        }
      },
      "updateProductPrice(bytes32,bytes32,uint256)": {
        "details": "Updates the price of a product",
        "params": {
          "newPrice": "new price to set to product",
          "productId": "ID of product for which to update price",
          "storefrontId": "ID of storefront associated with product"
        }
      },
      "withdrawStorefrontBalance(bytes32)": {
        "details": "Transfers the balance of a storefront to its owner",
        "params": {
          "storefrontId": "ID of storefront from which to withdraw balance"
        }
      }
    }
  },
  "userdoc": {
    "methods": {
      "close()": {
        "notice": "Transfers the current balance to the owner and kills the contract."
      },
      "pause()": {
        "notice": "called by the owner to pause, triggers stopped state"
      },
      "transferOwnership(address)": {
        "notice": "Allows the current owner to transfer control of the contract to a newOwner.   newOwner Is the address to transfer ownership to."
      },
      "unpause()": {
        "notice": "called by the owner to unpause, returns to normal state"
      }
    }
  }
}